S00D00005445534C412E737265639E
S11300000C942A000C9447000C94D0010C944700E3
S11300100C9447000C9447000C9447000C94470040
S11300200C9447000C9447000C9447000C94DC0299
S11300300C9447000C9447000C9447000C94470020
S11300400C9447000C9447000C9447000C94470010
S11300500C94470011241FBECFE5D8E0DEBFCDBF0E
S113006010E0A0E6B0E0E4E8F7E002C005900D92ED
S1130070A237B107D9F720E0A2E7B0E001C01D9292
S1130080AE38B207E1F70E9415030C94C0030C9438
S11300900000982F907F9BBB98B39D7F98BB98B32B
S11300A0986098BBEFE1FEE43197F1F700C00000DF
S11300B098B3977F98BBEFE1FEE43197F1F700C066
S11300C00000F0E18F9FC00111248BBB88B38860CE
S11300D088BB8FE19EE40197F1F700C0000088B36C
S11300E0877F88BBEFE1FEE43197F1F700C00000A1
S11300F0089580EF8ABB87B38E6087BB80E28BBB99
S113010088B3886088BB8FE19EE40197F1F700C053
S1130110000088B3877F88BB8FE19EE40197F1F7E5
S113012000C0000088E20E9449008FE19EE401972C
S1130130F1F700C000008FE00E9449008FE19EE4C7
S11301400197F1F700C0000080E80E94490008957B
S1130150982F907F9BBB98B3926098BB98B398609C
S113016098BBEFE1FEE43197F1F700C0000098B3CB
S1130170977F98BBEFE1FEE43197F1F700C00000F0
S1130180F0E18F9FC00111248BBB88B3886088BBCA
S11301908FE19EE40197F1F700C0000088B3877FE8
S11301A088BBEFE1FEE43197F1F700C00000089549
S11301B00F931F93CF93DF938C01C0E0D0E003C073
S11301C00E94A8002196F801EC0FFD1F8081811187
S11301D0F7CFDF91CF911F910F91089520E4829F73
S11301E0C00111248068860F0E94490087EC90E0CA
S11301F00197F1F700C00000089541E060E087E353
S113020090E00E942D0341E061E087E390E00E94CA
S11302102D0341E062E087E390E00E942D0341E07A
S113022063E087E390E00E942D03089541E060E0DD
S113023088E390E00E944B0341E063E088E390E0B0
S11302400E944B03089540E060E088E390E00E9440
S11302504B0340E063E088E390E00E944B0340E0FE
S113026061E088E390E00E944B0340E062E088E3B1
S113027090E00E944B03089541E061E088E390E040
S11302800E944B0341E063E088E390E00E944B034B
S11302902FEF87EA91E6215080409040E1F700C0BB
S11302A0000040E061E088E390E00E944B0340E0FE
S11302B063E088E390E00E944B03089541E060E02E
S11302C088E390E00E944B0341E062E088E390E021
S11302D00E944B032FEF87EA91E621508040904023
S11302E0E1F700C0000040E060E088E390E00E9495
S11302F04B0340E062E088E390E00E944B030895E2
S113030080E881BB12BA089580E882BB8FE096E052
S11303100197F1F700C0000012BA089580E882BB8B
S11303208FEB93E10197F1F700C0000012BA089532
S113033080E882BB8FE691E20197F1F700C00000EC
S113034012BA089513BE81E083BF12BE89B78160DB
S113035089BF089585B7846085BF8BB780688BBFDC
S1130360089581B3816081BB81B3877F81BB82B3F0
S1130370886082BB0E94AA010E94A2010895809114
S1130380770081110CC082B3816082BB80E58A95BD
S1130390F1F782B38E7F82BB81E08093770008956A
S11303A01F920F920FB60F9211242F933F934F93E6
S11303B05F936F937F938F939F93AF93BF93EF93C9
S11303C0FF9380917700813009F0E5C08091760039
S11303D081110DC012BE81E08093760010927200EC
S11303E0109273001092740010927500D4C0809122
S11303F0720090917300A0917400B0917500BA2FAF
S1130400A92F982F882722B7BC01CD01620F711D37
S1130410811D911D23EA33E040E050E00E9469030E
S11304202093800030938100409382005093830096
S113043060E070E081E090E00E94EE004AE064E851
S113044070E080918000909181000E948B03A4E869
S1130450B0E00D900020E9F7119785E0E0E6F0E0C8
S113046001900D928A95E1F784E890E00E94D8000B
S11304702FEF83EF91E0215080409040E1F700C0DE
S113048000000E948E01109272001092730010926C
S11304907400109275001092760080918000909103
S11304A08100A0918200B09183000B97A105B10552
S11304B008F06FC00E9423010E948E010E948401F3
S11304C02FEF89E698E1215080409040E1F700C089
S11304D000008091800090918100A0918200B091F1
S11304E0830080937C0090937D00A0937E00B09362
S11304F07F002FEF89E698E1215080409040E1F79A
S113050000C000000E9498012FEF89E698E1215075
S113051080409040E1F700C00000809180009091FD
S11305208100A0918200B091830080937800909321
S11305307900A0937A00B0937B002FEF89E698E1CD
S1130540215080409040E1F700C000000E948E01DD
S1130550409178005091790060917A0070917B000D
S113056080917C0090917D00A0917E00B0917F00ED
S1130570481759076A077B0728F40E945E010E9406
S1130580160104C00E943C010E9416010E948E01C3
S113059002C00E941601FF91EF91BF91AF919F910C
S11305A08F917F916F915F914F913F912F910F9018
S11305B00FBE0F901F9018951F920F920FB60F92B7
S11305C011242F938F939F93AF93BF9380917200C5
S11305D090917300A0917400B09175000196A11DD3
S11305E0B11D8093720090937300A0937400B09334
S11305F075008B3D9240A105B10568F012BE1092C2
S1130600770010927600109272001092730010928C
S1130610740010927500BF91AF919F918F912F91AB
S11306200F900FBE0F901F9018950E9480010E949A
S1130630B1010E94FD000E947900789485E690E063
S11306400E94D8000E94BF018FE59AEE0197F1F74E
S113065000C000000E941601F5CF442319F0413078
S113066071F00895FC01408121E030E002C0220FC6
S1130670331F6A95E2F72095242320830895FC0113
S1130680408121E030E002C0220F331F6A95E2F777
S1130690242B20830895442319F0413071F00895E8
S11306A0FC01408121E030E002C0220F331F6A9533
S11306B0E2F72095242320830895FC01408121E062
S11306C030E002C0220F331F6A95E2F7242B208307
S11306D00895A1E21A2EAA1BBB1BFD010DC0AA1F7F
S11306E0BB1FEE1FFF1FA217B307E407F50720F097
S11306F0A21BB30BE40BF50B661F771F881F991F12
S11307001A9469F760957095809590959B01AC015A
S1130710BD01CF010895BB274A3031F4992322F457
S1130720BDE2909581959F4F0C949703BB27FB01E5
S11307305527AA27880F991FAA1FA41710F0A41BD6
S113074083955051B9F7A05DAA3308F0A95DA19330
S1130750009779F7B111B1931192CB010C94B003C6
S1130760DC01FC01672F71917723E1F7329704C014
S11307707C916D9370836291AE17BF07C8F308959F
S1070780F894FFCF17
S113078420636D200044697374616E63652069732A
S105079420003F
S9030000FC
